S01000004C4344436C6F636B2E7372656355
S11300000C942A000C9434000C9434000C943400A6
S11300100C9434000C9434000C9434000C9434008C
S11300200C9434000C9434000C9434000C9434007C
S11300300C9434000C9434000C9434000C9434006C
S11300400C9434000C9434000C9434000C9434005C
S11300500C94340011241FBECFE5D8E0DEBFCDBF21
S11300600E948B000C94AA000C94000023E023BF90
S113007009C083E882BF88B7816088BF08B600FEE4
S1130080FDCFC9019C0121503109892B91F713BE81
S1130090089514BA15BA44B321E030E0F90102C05E
S11300A0EE0FFF1F8A95E2F7CF014E2B44BB95B3A9
S11300B08095892385BB85B3062E02C0220F331F8A
S11300C00A94E2F7282B25BB83B390E002C09595F0
S11300D087956A95E2F780FD03C081E090E008957A
S11300E080E090E00895CF93DF93C0E0D0E00BC0B0
S11300F0BE0180E090E00E944900892B19F0CE01F6
S1130100019606C02196C430D10594F380E090E0B6
S1130110DF91CF91089581B3806881BB82B38F77DB
S113012082BB0E9473008C01C0E0D0E00FC084EF5A
S113013091E00E94360082B3805882BB84EF91E044
S11301400E94360082B3805882BB2196C017D10723
S10B015074F3E7CFF894FFCF2C
S9030000FC
