:100000000C943A000C944F000C944F000C944F0049
:100010000C944F000C944F000C944F000C944F0024
:100020000C944F000C944F000C944F000C944F0014
:100030000C944F000C944F000C944F000C944F0004
:100040000C944F000C944F000C944F000C944F00F4
:100050000C944F00A904BB04CD04DF04E404F604AF
:1000600008051A051F053105430555055A055F05A5
:100070007005820511241FBECFE5D8E0DEBFCDBFDD
:1000800011E0A0E6B0E0E4E6F3E102C005900D92D5
:10009000AA31B107D9F70E94B1050C94B0090C94AC
:1000A000000023E023BF0AC083E882BF88B78160D5
:1000B00088BFA89508B600FEFDCFC9019C0121505C
:1000C0003109892B89F713BE0895FC0181ED97E072
:1000D0009183808382E090E0938382838CE190E03F
:1000E0009583848387E190E0978386838BE390E018
:1000F0009187808789E390E09387828708959C01A8
:1001000083709927892B81F4C90160E971E00E940D
:100110007206892B59F0C90164E670E00E947206EC
:10012000892B31F480E0089580E0089581E00895FE
:1001300081E00895EF92FF920F931F93CF93DF9387
:10014000FC01228533852F5F3F4F338722872C3375
:10015000310509F04BC01386128680859185019682
:1001600091878087CC9709F041C0118610868681DF
:1001700097810196978386834897C1F5EF0117828F
:100180001682048115810F5F1F4F15830483E08061
:10019000F180C7010E947F00882341F02A813B81C2
:1001A0002230310519F40E31110561F081111EC0A4
:1001B000EA81FB81E750FF4F808190E001960817AC
:1001C0001907A1F481E090E09D838C838A819B8153
:1001D00001969B838A830D9749F481E090E09B838D
:1001E0008A838FEFE81AF80AF982E882DF91CF91CB
:1001F0001F910F91FF90EF900895EF92FF920F9350
:100200001F93CF93DF93CDB7DEB761970FB6F89406
:10021000DEBF0FBECDBF8C0160E070E080E090E0FB
:100220000E941404F80181818F9380818F938581CE
:100230008F9384818F9383818F9382818F9380E6C4
:1002400090E09F938F93CE0101967C019F938F93B3
:100250000E94C606C7010E942C0460E070E081E0A5
:1002600090E00E941404F80183858F9382858F9318
:1002700081858F9380858F9387818F9386818F93DC
:1002800084E790E09F938F93FF92EF920E94C606BF
:10029000C7010E942C040FB6F894DEBF0FBECDBF7D
:1002A00061960FB6F894DEBF0FBECDBFDF91CF9140
:1002B0001F910F91FF90EF9008950F931F93CF938D
:1002C000DF93CDB7DEB761970FB6F894DEBF0FBEF0
:1002D000CDBF8C016330710509F451C03CF461302D
:1002E000710579F06230710559F1C4C0653071054E
:1002F00009F483C00CF462C06630710509F49CC037
:10030000B9C060E070E080E090E00E941404F80161
:1003100081818F9380818F9385818F9384818F9347
:1003200088E890E09F938F93CE0101969F938F93DF
:100330000E94C6060FB6F894DEBF0FBECDBF9AC0AE
:1003400060E070E080E090E00E941404F801818198
:100350008F9380818F9383818F9382818F938AE99A
:1003600090E09F938F93CE0101969F938F930E946D
:10037000C6060FB6F894DEBF0FBECDBF7BC060E0EF
:1003800070E080E090E00E941404F80185818F9372
:1003900084818F9383818F9382818F938CEA90E005
:1003A0009F938F93CE0101969F938F930E94C606D1
:1003B0000FB6F894DEBF0FBECDBF5CC060E070E04A
:1003C00081E090E00E941404F80183858F93828578
:1003D0008F9381858F9380858F938FEB90E09F9390
:1003E0008F93CE0101969F938F930E94C6060FB6FE
:1003F000F894DEBF0FBECDBF3DC060E070E081E08D
:1004000090E00E941404F80183858F9382858F9376
:1004100087818F9386818F9380ED90E09F938F9358
:10042000CE0101969F938F930E94C6060FB6F89453
:10043000DEBF0FBECDBF1EC060E070E081E090E087
:100440000E941404F80181858F9380858F938781A2
:100450008F9386818F9381EE90E09F938F93CE014F
:1004600001969F938F930E94C6060FB6F894DEBF45
:100470000FBECDBFCE0101960E942C0461960FB62F
:10048000F894DEBF0FBECDBFDF91CF911F910F91CA
:100490000895DC01FB018D919C91119791838083DC
:1004A00012968D919C9113979383828314968D91CC
:1004B0009C9115979583848316968D919C9117979F
:1004C0009783868318968D919C9119979187808741
:1004D0001A968D919C911B979387828708950F930D
:1004E0001F93CF93DF93FC0180819181803127E2BC
:1004F0009207A8F5028113819801215031092C300F
:10050000310578F5EF010E947F00882341F0023029
:10051000110529F42C813D812E31310524F58823E4
:1005200019F00230110569F02C813D81F801E75086
:10053000FF4F808190E082179307BCF012161306DC
:10054000B4F48E819F814997A0F488859985CC97D2
:1005500090F48A859B85CC9780F080E00FC080E086
:100560000DC080E00BC080E009C080E007C080E0E3
:1005700005C080E003C080E001C081E0DF91CF9141
:100580001F910F9108950F931F93CF93DF93FC0159
:100590009A016330710509F43FC03CF46130710584
:1005A00079F06230710511F19BC06530710509F475
:1005B0006CC00CF454C06630710509F47CC090C066
:1005C000828193816AE070E00E947206AC01440F60
:1005D000551F880F991F880F991F880F991F840F27
:1005E000951F280F391F338322837AC08481958118
:1005F0006AE070E00E947206AC01440F551F880F3C
:10060000991F880F991F880F991F840F951F280F16
:10061000391F3583248364C0C081D18108EE13E083
:10062000CE01B8010E947206609FA001619F500D2B
:10063000709F500D1124CE01BA010E947206AC01C8
:10064000440F551F880F991F880F991F880F991FF6
:10065000840F951F280F391F3183208341C0868165
:1006600097816AE070E00E947206AC01440F551F4A
:10067000880F991F880F991F880F991F840F951F46
:10068000280F391F378326832BC0808591856AE028
:1006900070E00E947206AC01440F551F880F991F2D
:1006A000880F991F880F991F840F951F280F391FD6
:1006B0003187208715C0828593856AE070E00E94AB
:1006C0007206AC01440F551F880F991F880F991FA0
:1006D000880F991F840F951F280F391F3387228792
:1006E000DF91CF911F910F910895CF93DF93EC018C
:1006F0008E819F810C971CF482EF90E002C086EF00
:1007000090E09F938F937F936F930E94C6068E8194
:100710009F810F900F900F900F90892B21F48CE008
:1007200090E09F838E838E819F818D3091051CF098
:100730000C979F838E83DF91CF910895882321F0BA
:1007400088B3816088BB03C088B38E7F88BB88B3C1
:10075000826088BB11BA80B388B3846088BB000014
:100760000000000011BA80B398B39B7F98BB089536
:10077000662321F098B3916098BB03C098B39E7F25
:1007800098BB98B39D7F98BB82BB8FEF81BB88B32A
:10079000846088BB00000000000088B38B7F88BBAA
:1007A0000895CF93DF93C82FD62F80E00E949E0339
:1007B0008823DCF36D2F8C2F0E94B803DF91CF913B
:1007C000089587B3816087BB87B3826087BB87B397
:1007D000846087BB80E190E00E94510060E080E38C
:1007E0000E94B80385E090E00E94510060E080E341
:1007F0000E94B80381E090E00E94510060E08CE329
:100800000E94D10360E08CE00E94D10360E086E0AA
:100810000E94D10360E081E00E94D103089560E06E
:1008200081E00E94D1030895CF93DF93C62F98E211
:10083000899FC00D112460E082E00E94D10305C0B1
:1008400060E084E10E94D103CD2FDFEFDC0FC11106
:10085000F7CFDF91CF910895CF93DF93FC0104C0D0
:1008600061E00E94D103FE01EF0121968081811198
:10087000F7CFDF91CF910895CF93DF9314BA15BAD4
:1008800045B321E030E0F90102C0EE0FFF1F8A9569
:10089000E2F7CF019E2F9095492345BB94B3892B56
:1008A00084BB85B3EB0124960C2E02C0220F331FAC
:1008B0000A94E2F7822B85BB84B32095282324BBBE
:1008C00081E090E00E94510083B390E002C09595D2
:1008D0008795CA95E2F780FD03C081E090E002C0F1
:1008E00080E090E0DF91CF9108950F931F93CF9315
:1008F000DF9300E010E018C0BE01C8010E943C0474
:10090000892B49F0C801880F991F880F991F8C0FF8
:100910009D1F01960EC0219602C0C0E0D0E0C430F9
:10092000D10554F30F5F1F4F04301105B4F380E07D
:1009300090E0DF91CF911F910F910895FB013197C6
:10094000E031F10508F0E3C0DC01E65DFF4F0C94F7
:1009500086061F9281E08F9386E091E09F938F93AC
:10096000BF93AF930E94C6060F900F900F900F9009
:100970000F900F9008951F9282E08F9386E091E090
:100980009F938F93BF93AF930E94C6060F900F90D3
:100990000F900F900F900F9008951F9283E08F9308
:1009A00086E091E09F938F93BF93AF930E94C6061A
:1009B0000F900F900F900F900F900F90089581E47B
:1009C00090E08D939C9308951F9284E08F9386E02E
:1009D00091E09F938F93BF93AF930E94C6060F90B1
:1009E0000F900F900F900F900F9008951F9285E039
:1009F0008F9386E091E09F938F93BF93AF930E9474
:100A0000C6060F900F900F900F900F900F900895C3
:100A10001F9286E08F9386E091E09F938F93BF9320
:100A2000AF930E94C6060F900F900F900F900F90FB
:100A30000F90089582E490E08D939C9308951F9207
:100A400087E08F9386E091E09F938F93BF93AF935E
:100A50000E94C6060F900F900F900F900F900F906E
:100A600008951F9288E08F9386E091E09F938F9383
:100A7000BF93AF930E94C6060F900F900F900F90F8
:100A80000F900F9008951F9289E08F9386E091E078
:100A90009F938F93BF93AF930E94C6060F900F90C2
:100AA0000F900F900F900F90089583E490E08D9336
:100AB0009C9308958AE290E08D939C9308951F92F1
:100AC0001F9286E091E09F938F93BF93AF930E9414
:100AD000C6060F900F900F900F900F900F900895F3
:100AE0001F928FE08F9386E091E09F938F93BF9347
:100AF000AF930E94C6060F900F900F900F900F902B
:100B00000F90089584E490E08D939C93089525E4DC
:100B100035E4FC013183208312820895FC010190A9
:100B20000020E9F73197E81BF90BE230F10549F4B1
:100B3000DC0111962C9130E0205331092A30310527
:100B400050F0319751F4FC01808190E0C0970A97F2
:100B500030F080E0089581E0089580E0089581E01C
:100B60000895CF93DF93CDB7DEB7A7970FB6F8946C
:100B7000DEBF0FBECDBF0E94E10360E080E00E94B7
:100B800014040E940F048AE091E00E942C0484EF78
:100B900091E00E945100CE0101960E94650010E094
:100BA00001E0EE24E394F12C84EF91E00E945100E7
:100BB0000E947504049709F5111109C0BE01635F15
:100BC0007F4FCE0101960E94490211E016C0CE016E
:100BD0000D960E946F02882361F0BE016F5F7F4F08
:100BE000CE010D960E94490210E0EE24E394F12C10
:100BF00004C010E0EE24E394F12C112381F10E9453
:100C000075046C01BC01CE0149960E949E0481E0EE
:100C100090E00E94510088E0C816D10421F48FEFC3
:100C2000E81AF80A10C0CE0149960E948E05882362
:100C300051F0CE0149960E94A006AC01B701CE0149
:100C40000D960E94C30287E0E816F1041CF0EE2422
:100C5000E394F12CB701CE010D960E945D01CE0107
:100C600001960E949A0084EF91E00E9451001111B8
:100C700009C00E9475040C9729F4002311F000E0CC
:100C800001C001E0BE01675E7F4FCE0101960E9468
:100C90004902BE016B5D7F4FCE0149960E947503EC
:100CA0006DE081E00E941404002329F086E191E0C8
:100CB0000E942C0404C0CE0185960E942C041123AE
:100CC00029F0CE010D960E94FD006ECF002329F081
:100CD000CE0101960E94FD0067CFCE0149960E9489
:100CE000FD0062CF97FB072E16F4009407D077FD26
:100CF00009D00E948C0607FC05D03EF490958195A2
:100D00009F4F0895709561957F4F0895EE0FFF1FD7
:100D10000590F491E02D0994AA1BBB1B51E107C07B
:100D2000AA1FBB1FA617B70710F0A61BB70B881F7B
:100D3000991F5A95A9F780959095BC01CD0108950A
:100D4000FC0188279927E89421912032E9F3293082
:100D500010F02E30C8F32B3241F02D3239F4689464
:100D600004C00E94BE06820F911D219120532A309B
:100D7000C0F31EF4909581959F4F08957AE0979F58
:100D8000902D879F802D910D11240895AEE0B0E045
:100D9000ECECF6E00C9487090D891E8986E08C83C3
:100DA0001A8309838FEF9FE79E838D83AE01475E91
:100DB0005F4F6F89788DCE0101960E94E806EF8122
:100DC000F885E00FF11F10822E96E4E00C94A30941
:100DD000ABE0B0E0EEEEF6E00C9479096C017B013B
:100DE0008A01FC0117821682838181FFCCC1CE016A
:100DF00001963C01F6019381F70193FD859193FFE4
:100E000081917F01882309F4BAC1853239F493FDB9
:100E1000859193FF81917F01853229F4B60190E09D
:100E20000E94DF08E7CF912C212C312CFFE1F31534
:100E3000D8F08B3279F038F4803279F08332A1F433
:100E4000232D20611DC08D3261F0803369F4232D84
:100E5000216016C0832D8260382EE32DE4603E2E83
:100E60002AC0F32DF8601DC037FC2DC020ED280FDF
:100E70002A3040F08E32B9F436FC81C1232D206433
:100E8000322E19C036FE06C08AE0989E200D11242D
:100E9000922E11C0EAE02E9E200D1124222EF32D59
:100EA000F0623F2E08C08C3621F4832D8068382EE6
:100EB00002C0883641F4F70193FD859193FF81913B
:100EC0007F018111B3CF982F9F7D9554933028F4E3
:100ED0000C5F1F4F9FE399830DC0833631F083373A
:100EE00071F0833509F059C021C0F80180818983F0
:100EF0000E5F1F4F88248394912C530113C0280147
:100F0000F2E04F0E511CF801A080B18036FE03C004
:100F1000692D70E002C06FEF7FEFC5010E94D40819
:100F20004C018201F32DFF773F2E16C0280122E0ED
:100F3000420E511CF801A080B18036FE03C0692D1D
:100F400070E002C06FEF7FEFC5010E94C9084C013D
:100F5000F32DF0683F2E820133FC1BC0822D90E000
:100F600088169906B0F4B60180E290E00E94DF088E
:100F70002A94F4CFF50137FC859137FE81915F010A
:100F8000B60190E00E94DF0821102A9421E0821A25
:100F900091088114910471F7E8C0843611F0893604
:100FA00041F5F80137FE07C060817181828193812C
:100FB0000C5F1F4F08C060817181072E000C880BE9
:100FC000990B0E5F1F4FF32DFF763F2E97FF09C041
:100FD00090958095709561957F4F8F4F9F4FF068EA
:100FE0003F2E2AE030E0A3010E941B09882E8618BC
:100FF00045C0853731F4232D2F7EB22E2AE030E014
:1010000025C0932D997FB92E8F36C1F018F48835FD
:1010100079F0B5C0803719F0883721F0B0C0E92FDA
:10102000E061BE2EB4FE0DC0FB2DF460BF2E09C0E2
:1010300034FE0AC0292F2660B22E06C028E030E018
:1010400005C020E130E002C020E132E0F801B7FE47
:1010500007C060817181828193810C5F1F4F06C040
:101060006081718180E090E00E5F1F4FA3010E94BC
:101070001B09882E8618FB2DFF773F2E36FE0DC0EC
:10108000232D2E7FA22E891458F434FE0BC032FC7F
:1010900009C0832D8E7EA82E05C0B82CA32C03C0BA
:1010A000B82C01C0B92CA4FE0FC0FE01E80DF11D43
:1010B0008081803321F49A2D997EA92E09C0A2FE49
:1010C00006C0B394B39404C08A2D867809F0B39413
:1010D000A3FC11C0A0FE06C0B21488F4280C922C08
:1010E0009B180EC0B21460F4B60180E290E00E943A
:1010F000DF08B394F7CFB21418F42B1802C0982C61
:10110000212CA4FE10C0B60180E390E00E94DF080D
:10111000A2FE17C0A1FC03C088E790E002C088E5EA
:1011200090E0B6010CC08A2D867859F0A1FE02C06D
:101130008BE201C080E2A7FC8DE2B60190E00E9444
:10114000DF08891438F4B60180E390E00E94DF08DC
:101150009A94F7CF8A94F301E80DF11D8081B601CE
:1011600090E00E94DF088110F5CF222009F442CEE2
:10117000B60180E290E00E94DF082A94F6CFF601E3
:101180008681978102C08FEF9FEF2B96E2E10C944E
:101190009509FC010590615070400110D8F78095C9
:1011A00090958E0F9F1F0895FC0161507040019033
:1011B0000110D8F7809590958E0F9F1F08950F937B
:1011C0001F93CF93DF93FB01238121FD03C08FEF9A
:1011D0009FEF2CC022FF16C04681578124813581A4
:1011E0004217530744F4A081B1819D012F5F3F4F07
:1011F000318320838C93268137812F5F3F4F378344
:10120000268314C08B01EC01FB010084F185E02DE5
:101210000995892BE1F6D80116968D919C91179727
:10122000019617969C938E931697CE01DF91CF91DE
:101230001F910F910895FA01AA27283051F120310A
:1012400081F1E8946F936E7F6E5F7F4F8F4F9F4F5A
:10125000AF4FB1E03ED0B4E03CD0670F781F891F9C
:101260009A1FA11D680F791F8A1F911DA11D6A0F6A
:10127000711D811D911DA11D20D009F468943F911D
:101280002AE0269F11243019305D3193DEF6CF011C
:101290000895462F4770405D4193B3E00FD0C9F7E2
:1012A000F6CF462F4F70405D4A3318F0495D31FD4F
:1012B0004052419302D0A9F7EACFB4E0A6959795A2
:1012C000879577956795BA95C9F700976105710578
:1012D00008959B01AC010A2E0694579547953795C2
:1012E0002795BA95C9F7620F731F841F951FA01D1C
:1012F00008952F923F924F925F926F927F928F92BA
:101300009F92AF92BF92CF92DF92EF92FF920F9394
:101310001F93CF93DF93CDB7DEB7CA1BDB0B0FB69E
:10132000F894DEBF0FBECDBF09942A88398848885B
:101330005F846E847D848C849B84AA84B984C884F1
:10134000DF80EE80FD800C811B81AA81B981CE0FE8
:10135000D11D0FB6F894DEBF0FBECDBFED010895CD
:04136000F894FFCF2F
:1013640025303264202F2025303264202F20253070
:101374003464200025303264203A20253032642041
:101384003A202530326420002020202F20253032BE
:1013940064202F2025303464200025303264202F2F
:1013A400202020202F202530346420002530326472
:1013B400202F2025303264202F20202020200020C0
:1013C40020203A2025303264203A2025303264002F
:1013D40025303264203A202020203A2025303264FF
:1013E4000025303264203A2025303264203A20200F
:1013F400200020414D0020504D001F1C1F1E1F1EA9
:101404001F1F1E1F1E1F25326400737461727469CE
:0A1414006E672E2E2E0032344800C1
:00000001FF
