:100000000C942A000C9447000C9447000C94470071
:100010000C9447000C9447000C9447000C94470044
:100020000C9447000C9447000C9447000C94470034
:100030000C9447000C9447000C9447000C94470024
:100040000C9447000C9447000C9447000C94470014
:100050000C94470011241FBECFE5D8E0DEBFCDBF12
:1000600011E0A0E6B0E0EAEAFBE002C005900D92E4
:10007000A432B107D9F721E0A4E2B1E001C01D929A
:10008000A532B207E1F70E9479020C94D3050C94D3
:10009000000023E023BF33E8019748F032BF28B7C0
:1000A000216028BFA89508B600FEFDCFF5CF13BE8E
:1000B0000895662311F0C09A01C0C098C19882BB10
:1000C0008FEF81BBC29A000000000000C298089523
:1000D000C098C19A11BA90B3C29A00000000000003
:1000E00011BA90B3C29897FDF3CF0C945900B89A07
:1000F000B99ABA9A80E190E00E94490060E080E3FA
:100100000E94590085E090E00E94490060E080E391
:100110000E94590081E090E00E94490060E08CE379
:100120000E94680060E08CE00E94680060E086E069
:100130000E94680060E081E00C94680060E081E06B
:100140000C946800CF93C62F98E2899FC00D1124AC
:1001500060E082E00E946800CC2331F060E084E13E
:100160000E946800C150F8CFCF910895CF93DF93DC
:10017000EC018991882321F061E00E946800F9CFA9
:10018000DF91CF910895CF93DF9314BA15BA45B399
:1001900021E030E0F90102C0EE0FFF1F8A95E2F77F
:1001A000CF019E2F9095492345BB94B3892B84BBE7
:1001B00085B3EB0124960C2E01C0220F0A94EAF7B6
:1001C000822B85BB84B32095282324BB81E090E05B
:1001D0000E94490083B390E002C095958795CA9527
:1001E000E2F781709927E1E08E27DF91CF910895A2
:1001F0000F931F93CF93DF9300E010E0C0E0D0E0B7
:10020000BE01C8010E94C300009749F0000F111FF2
:10021000000F111FC00FD11FCE01019609C02196FA
:10022000C430D10569F70F5F1F4F0430110531F756
:10023000DF91CF911F910F910895FC0186EE97E019
:100240009183808382E090E0938382838CE190E0CD
:100250009583848387E190E0978386838BE390E0A6
:1002600091878087138612860895FC018285938585
:1002700001968C33910519F0938782870895138630
:1002800012868085918501968C33910519F09187AE
:10029000808708951186108686819781019688311E
:1002A000910519F0978386830895178216824481F9
:1002B00055814F5F5F4F5583448382819381DC0179
:1002C000A95EBE4F2C9130E02F5F3F4F421753077E
:1002D00091F421E030E03583248301968C30910540
:1002E00019F09383828308953383228380819181DF
:1002F0000196918380830895EF92FF920F931F934D
:10030000CF93DF93CDB7DEB761970FB6F894DEBF1A
:100310000FBECDBF8C0160E080E00E94A200F8011A
:1003200081818F9380818F9385818F9384818F9337
:1003300083818F9382818F9382E790E09F938F9345
:10034000CE0101967C019F938F930E94E902C70121
:100350000E94B60060E081E00E94A200F80183855F
:100360008F9382858F9381858F9380858F938781EB
:100370008F9386818F9386E890E09F938F93FF926F
:10038000EF920E94E902C7010E94B6000FB6F894EE
:10039000DEBF0FBECDBF61960FB6F894DEBF0FBEB5
:1003A000CDBFDF91CF911F910F91FF90EF900895F6
:1003B000EF92FF920F931F93CF93DF93CDB7DEB7EA
:1003C00061970FB6F894DEBF0FBECDBF8C01CE0192
:1003D00001967C016330710509F441C0BCF46130C1
:1003E000710569F16230710509F073C060E080E069
:1003F0000E94A200F80181818F9380818F93838175
:100400008F9382818F938CEA90E058C0653071059C
:1004100009F445C0A4F16630710509F05AC060E0E6
:1004200081E00E94A200F80181858F9380858F93DF
:1004300087818F9386818F9383EF90E03FC060E048
:1004400080E00E94A200F80181818F9380818F93C8
:1004500085818F9384818F938AE990E02FC060E03B
:1004600080E00E94A200F80185818F9384818F93A0
:1004700083818F9382818F938EEB90E01FC060E029
:1004800081E00E94A200F80183858F9382858F937B
:1004900081858F9380858F9381ED90E00FC060E020
:1004A00081E00E94A200F80183858F9382858F935B
:1004B00087818F9386818F9382EE90E09F938F93B5
:1004C000FF92EF920E94E9020FB6F894DEBF0FBED2
:1004D000CDBFC7010E94B60061960FB6F894DEBF8B
:1004E0000FBECDBFDF91CF911F910F91FF90EF9085
:1004F0000895CF93DF93CDB7DEB72C970FB6F8945E
:10050000DEBF0FBECDBF0E94770060E080E00E949A
:10051000A2000E949E0084E091E00E94B60084EF59
:1005200091E00E944900CE0101960E941D0101E068
:1005300010E0FF24F39484EF91E00E9449000E94B0
:10054000F800049749F480912401811103C0F092CE
:10055000240102C01092240180912401882381F09B
:100560000E94F800089711F40F5F1F4F0730110524
:1005700014F001E010E0B801CE0101960E94D8010C
:1005800080912401811109C00E94F8000C9729F480
:10059000809160008F25809360006DE081E00E9473
:1005A000A20080916000882319F080E191E002C0F0
:1005B00084E191E00E94B60084EF91E00E9449003E
:1005C000CE0101960E943501CE0101960E947C0168
:1005D000B2CFAEE0B0E0EFEEF2E00C94AA050D89E8
:1005E0001E8986E08C831A8309838FEF9FE79E83A1
:1005F0008D83AE01475E5F4F6F89788DCE01019686
:100600000E940B03EF81F885E00FF11F10822E96F8
:10061000E4E00C94C605ABE0B0E0E1E1F3E00C945B
:100620009C056C017B018A01FC0117821682838183
:1006300081FFCCC1CE0101963C01F6019381F70107
:1006400093FD859193FF81917F01882309F4BAC1BD
:10065000853239F493FD859193FF81917F01853235
:1006600029F4B60190E00E940205E7CF912C212CDD
:10067000312CFFE1F315D8F08B3279F038F4803269
:1006800079F08332A1F4232D20611DC08D3261F0F9
:10069000803369F4232D216016C0832D8260382EAB
:1006A000E32DE4603E2E2AC0F32DF8601DC037FC18
:1006B0002DC020ED280F2A3040F08E32B9F436FCE0
:1006C00081C1232D2064322E19C036FE06C08AE077
:1006D000989E200D1124922E11C0EAE02E9E200D2E
:1006E0001124222EF32DF0623F2E08C08C3621F407
:1006F000832D8068382E02C0883641F4F70193FDBF
:10070000859193FF81917F018111B3CF982F9F7DB8
:100710009554933028F40C5F1F4F9FE399830DC0CD
:10072000833631F0833771F0833509F059C021C029
:10073000F801808189830E5F1F4F88248394912C58
:10074000530113C02801F2E04F0E511CF801A080A4
:10075000B18036FE03C0692D70E002C06FEF7FEFFD
:10076000C5010E94F7044C018201F32DFF773F2E53
:1007700016C0280122E0420E511CF801A080B18071
:1007800036FE03C0692D70E002C06FEF7FEFC50138
:100790000E94EC044C01F32DF0683F2E820133FCE3
:1007A0001BC0822D90E088169906B0F4B60180E255
:1007B00090E00E9402052A94F4CFF50137FC859160
:1007C00037FE81915F01B60190E00E940205211081
:1007D0002A9421E0821A91088114910471F7E8C0EB
:1007E000843611F0893641F5F80137FE07C0608183
:1007F0007181828193810C5F1F4F08C0608171817C
:10080000072E000C880B990B0E5F1F4FF32DFF7600
:100810003F2E97FF09C090958095709561957F4F09
:100820008F4F9F4FF0683F2E2AE030E0A3010E94D7
:100830003E05882E861845C0853731F4232D2F7E3E
:10084000B22E2AE030E025C0932D997FB92E8F3645
:10085000C1F018F4883579F0B5C0803719F08837C1
:1008600021F0B0C0E92FE061BE2EB4FE0DC0FB2D1B
:10087000F460BF2E09C034FE0AC0292F2660B22EB4
:1008800006C028E030E005C020E130E002C020E1F1
:1008900032E0F801B7FE07C06081718182819381E7
:1008A0000C5F1F4F06C06081718180E090E00E5F99
:1008B0001F4FA3010E943E05882E8618FB2DFF774F
:1008C0003F2E36FE0DC0232D2E7FA22E891458F404
:1008D00034FE0BC032FC09C0832D8E7EA82E05C0CD
:1008E000B82CA32C03C0B82C01C0B92CA4FE0FC097
:1008F000FE01E80DF11D8081803321F49A2D997E4F
:10090000A92E09C0A2FE06C0B394B39404C08A2DD8
:10091000867809F0B394A3FC11C0A0FE06C0B214FF
:1009200088F4280C922C9B180EC0B21460F4B60107
:1009300080E290E00E940205B394F7CFB21418F45D
:100940002B1802C0982C212CA4FE10C0B60180E305
:1009500090E00E940205A2FE17C0A1FC03C088E738
:1009600090E002C088E590E0B6010CC08A2D867840
:1009700059F0A1FE02C08BE201C080E2A7FC8DE22B
:10098000B60190E00E940205891438F4B60180E3B4
:1009900090E00E9402059A94F7CF8A94F301E80D43
:1009A000F11D8081B60190E00E9402058110F5CF13
:1009B000222009F442CEB60180E290E00E940205B6
:1009C0002A94F6CFF6018681978102C08FEF9FEFC0
:1009D0002B96E2E10C94B805FC0105906150704043
:1009E0000110D8F7809590958E0F9F1F0895FC01F8
:1009F0006150704001900110D8F7809590958E0F4E
:100A00009F1F08950F931F93CF93DF93FB012381C3
:100A100021FD03C08FEF9FEF2CC022FF16C046813F
:100A20005781248135814217530744F4A081B18155
:100A30009D012F5F3F4F318320838C932681378127
:100A40002F5F3F4F3783268314C08B01EC01FB01DE
:100A50000084F185E02D0995892BE1F6D8011696E1
:100A60008D919C911797019617969C938E9316974C
:100A7000CE01DF91CF911F910F910895FA01AA271E
:100A8000283051F1203181F1E8946F936E7F6E5FD1
:100A90007F4F8F4F9F4FAF4FB1E03ED0B4E03CD07F
:100AA000670F781F891F9A1FA11D680F791F8A1F62
:100AB000911DA11D6A0F711D811D911DA11D20D0C9
:100AC00009F468943F912AE0269F11243019305D83
:100AD0003193DEF6CF010895462F4770405D419374
:100AE000B3E00FD0C9F7F6CF462F4F70405D4A33C1
:100AF00018F0495D31FD4052419302D0A9F7EACF89
:100B0000B4E0A6959795879577956795BA95C9F7B7
:100B100000976105710508959B01AC010A2E0694AA
:100B20005795479537952795BA95C9F7620F731F63
:100B3000841F951FA01D08952F923F924F925F92A0
:100B40006F927F928F929F92AF92BF92CF92DF92DD
:100B5000EF92FF920F931F93CF93DF93CDB7DEB742
:100B6000CA1BDB0B0FB6F894DEBF0FBECDBF0994D6
:100B70002A88398848885F846E847D848C849B842D
:100B8000AA84B984C884DF80EE80FD800C811B813B
:100B9000AA81B981CE0FD11D0FB6F894DEBF0FBE6A
:0A0BA000CDBFED010895F894FFCFDA
:100BAA0001253264004100420043002A0044004506
:100BBA00450025303264202F2025303264202F2032
:100BCA0025303464200025303264203A2025303222
:100BDA0064203A202530326420002020202F20254E
:100BEA00303264202F2025303464200025303264CE
:100BFA00202F202020202F2025303464200025306B
:100C0A003264202F2025303264202F2020202020FB
:100C1A00002020203A2025303264203A2025303224
:100C2A00640025303264203A202020203A202530E2
:100C3A0032640025303264203A2025303264203A6A
:100C4A00202020007374617274696E672E2E2E0044
:100C5A003234480020414D001F1C1F1E1F1E1F1F3B
:040C6A001E1F1E1F0C
:00000001FF
