:100000000C943A000C944F000C944F000C944F0049
:100010000C944F000C944F000C944F000C944F0024
:100020000C944F000C944F000C944F000C944F0014
:100030000C944F000C944F000C944F000C944F0004
:100040000C944F000C944F000C944F000C944F00F4
:100050000C944F00E603E903EC03EF03F203F5030E
:10006000F803FB03FE030104040407040A040D045F
:100070001004220411241FBECFE5D8E0DEBFCDBF9F
:1000800011E0A0E6B0E0E0E8F0E102C005900D92DA
:10009000A832B107D9F70E9444040C943E080C948E
:1000A000000023E023BF33E8019748F032BF28B7B0
:1000B000216028BFA89508B600FEFDCFF5CF13BE7E
:1000C0000895FC0181ED97E09183808382E090E0C8
:1000D000938382838CE190E09583848387E190E031
:1000E000978386838BE390E09187808789E390E014
:1000F0009387828708959C0183709927892B99F4AF
:10010000C90160E971E00E94F904892B71F0C9010D
:1001100064E670E00E94F9049C0191E0232B09F44D
:1001200090E0892F03C080E001C081E081700895D4
:10013000EF92FF920F931F93CF93DF93EC018A8589
:100140009B8501968C33910519F09B878A874BC05C
:100150001B861A868885998501968C33910519F03E
:100160009987888740C0198618868E819F8101965D
:100170008831910519F09F838E8335C01F821E82BE
:10018000EC80FD808FEFE81AF80AFD82EC8208818E
:100190001981C8010E947B002A813B81882341F09C
:1001A0002230310501F58EE1E816F104E1F409C0D1
:1001B000F901E15AFF4F808190E00196E816F906B7
:1001C00091F481E090E09D838C832F5F3F4F2D3031
:1001D000310519F03B832A8306C09B838A830F5F16
:1001E0001F4F19830883DF91CF911F910F91FF90CB
:1001F000EF900895EF92FF920F931F93CF93DF93A9
:10020000CDB7DEB761970FB6F894DEBF0FBECDBF96
:100210008C0160E080E00E946103F80181818F938E
:1002200080818F9385818F9384818F9383818F9336
:1002300082818F938CE690E09F938F93CE010196FD
:100240007C019F938F930E945405C7010E94750300
:1002500060E081E00E946103F80183858F938285CD
:100260008F9381858F9380858F9387818F938681EC
:100270008F9380E890E09F938F93FF92EF920E947C
:100280005405C7010E9475030FB6F894DEBF0FBE78
:10029000CDBF61960FB6F894DEBF0FBECDBFDF9124
:1002A000CF911F910F91FF90EF900895EF92FF92E1
:1002B0000F931F93CF93DF93CDB7DEB761970FB640
:1002C000F894DEBF0FBECDBF8C01CE0101967C013C
:1002D0006330710509F441C0BCF46130710569F106
:1002E0006230710509F073C060E080E00E94610334
:1002F000F80181818F9380818F9383818F93828195
:100300008F9386EA90E058C06530710509F445C0C6
:10031000A4F16630710509F05AC060E081E00E94E6
:100320006103F80181858F9380858F9387818F93F7
:1003300086818F938DEE90E03FC060E080E00E9468
:100340006103F80181818F9380818F9385818F93E1
:1003500084818F9384E990E02FC060E080E00E9468
:100360006103F80185818F9384818F9383818F93BB
:1003700082818F9388EB90E01FC060E081E00E9453
:100380006103F80183858F9382858F9381858F9395
:1003900080858F938BEC90E00FC060E081E00E943D
:1003A0006103F80183858F9382858F9387818F9373
:1003B00086818F938CED90E09F938F93FF92EF92C5
:1003C0000E9454050FB6F894DEBF0FBECDBFC70123
:1003D0000E94750361960FB6F894DEBF0FBECDBFC5
:1003E000DF91CF911F910F91FF90EF900895DC0165
:1003F000FB018D919C9111979183808312968D9131
:100400009C9113979383828314968D919C91159759
:100410009583848316968D919C91179797838683F5
:1004200018968D919C911997918780871A968D9136
:100430009C911B979387828708950F931F93CF9367
:10044000DF93EC0188819981803127E2920770F572
:100450000A811B819801215031092C30310530F57A
:100460000E947B002C813D81882339F002301105E8
:1004700021F42E31310564F019C0F801E15AFF4F23
:10048000808190E0821793078CF01216130674F4A3
:100490008E819F81499750F488859985CC9730F457
:1004A00081E02A853B852C33310508F080E0DF911F
:1004B000CF911F910F9108950F931F93CF93DF93C7
:1004C000FC019A016330710509F445C0C4F4613040
:1004D000710581F16230710509F07CC084819581DC
:1004E0006AE070E00E94F9046AE0689FA001699FD9
:1004F000500D1124240F351F358324836BC06530C4
:10050000710509F457C00CF444C06630710509F058
:1005100061C0828593856AE070E00E94F9046AE018
:10052000689FA001699F500D1124240F351F338748
:10053000228750C0828193816AE070E00E94F904B2
:100540006AE0689FA001699F500D1124240F351F98
:10055000338322833FC0C081D18108EE13E0CE01F6
:10056000B8010E94F904609FA001619F500D709F27
:10057000500D1124CE01BA010E94F9046AE0689F6F
:10058000A001699F500D1124240F351F3183208352
:1005900021C0868197816AE070E00E94F9046AE0D8
:1005A000689FA001699F500D1124240F351F3783C8
:1005B000268310C0808591856AE070E00E94F9046E
:1005C0006AE0689FA001699F500D1124240F351F18
:1005D00031872087DF91CF911F910F910895CF939D
:1005E000DF93EC018E819F810C971CF082E091E0FB
:1005F00002C08EEF90E09F938F937F936F930E9442
:1006000054050F900F900F900F908E819F81892B32
:1006100021F48CE090E09F838E838E819F818D30CA
:1006200091051CF00C979F838E83DF91CF910895E5
:10063000662311F0C09A01C0C098C19882BB8FEFA9
:1006400081BBC29A000000000000C2980895C098C3
:10065000C19A11BA90B3C29A00000000000011BA0A
:1006600090B3C29897FDF3CF0C941803B89AB99A37
:10067000BA9A80E190E00E94510060E080E30E941D
:10068000180385E090E00E94510060E080E30E9442
:10069000180381E090E00E94510060E08CE30E942A
:1006A000270360E08CE00E94270360E086E00E9460
:1006B000270360E081E00C94270360E081E00C9464
:1006C0002703CF93C62F98E2899FC00D112460E0C5
:1006D00082E00E942703CC2331F060E084E10E9495
:1006E0002703C150F8CFCF910895CF93DF93EC014A
:1006F0008991882321F061E00E942703F9CFDF91DF
:10070000CF910895CF93DF9314BA15BA45B321E082
:1007100030E0F90102C0EE0FFF1F8A95E2F7CF012A
:100720009E2F9095492345BB94B3892B84BB85B3F9
:10073000EB0124960C2E01C0220F0A94EAF7822BBB
:1007400085BB84B32095282324BB81E090E00E94E0
:10075000510083B390E002C095958795CA95E2F762
:1007600081709927E1E08E27DF91CF9108950F9353
:100770001F93CF93DF9300E010E0C0E0D0E0BE0114
:10078000C8010E948203009749F0000F111F000F5B
:10079000111FC00FD11FCE01019609C02196C43090
:1007A000D10569F70F5F1F4F0430110531F7DF9155
:1007B000CF911F910F910895FB013197E031F10521
:1007C00008F043C0E65DFF4F0C940D051F9221E039
:1007D00029C01F9222E026C01F9223E023C06AE0B6
:1007E00071E035C01F9224E01DC01F9225E01AC0A1
:1007F0001F9226E017C06CE071E029C01F9227E02D
:1008000011C01F9228E00EC01F9229E00BC06EE0BD
:1008100071E01DC060E171E01AC01F921F9203C019
:100820001F922FE02F9326E031E03F932F939F9369
:100830008F930E9454050F900F900F900F900F9080
:100840000F90089562E171E002C064E171E00C94E0
:100850004505DC01FC0101900020E9F73197E81B18
:10086000F90BE230F10519F411962C9103C0319780
:1008700041F42C9130E02053310981E02A303105D8
:1008800008F080E081700895CF93DF93CDB7DEB795
:10089000A7970FB6F894DEBF0FBECDBF0E943603F8
:1008A00060E080E00E9461030E945D0387E191E0C7
:1008B0000E94750384EF91E00E945100CE01499699
:1008C0000E946100F12CEE24E39401E010E0BB24CF
:1008D000B39484EF91E00E9451000E94B703049703
:1008E000C9F4F11008C0BE01635F7F4FCE01499685
:1008F0000E94F70111C0CE010D960E941D028823AF
:1009000009F473C0BE01675E7F4FCE010D960E9451
:10091000F7016BC0FF2079F10E94B7036C01BC01A5
:10092000CE0101960E94DC0381E090E00E9451001C
:1009300088E0C816D10419F40F5F1F4F10C0CE0114
:1009400001960E942904882351F0CE0101960E944D
:100950002705AC01B801CE010D960E945C0207305C
:10096000110514F001E010E0B801CE010D960E94CF
:100970005601FF24F394CE0149960E94980084EF1B
:1009800091E00E945100F11005C00E94B7030C973E
:1009900009F4EB24BE016F5F7F4FCE0149960E94A0
:1009A000F701BE016B5D7F4FCE0101960E94EF0201
:1009B0006DE081E00E946103EE2049F083E291E066
:1009C0000E947503FF2061F0CE010D960BC0CE0191
:1009D00085960E947503F110F7CFCE01019602C0F3
:1009E000CE0149960E94FA0074CFF12C01E010E08C
:1009F000C2CF97FB072E16F4009407D077FD09D0DD
:100A00000E94130507FC05D03EF4909581959F4FF9
:100A10000895709561957F4F0895EE0FFF1F059023
:100A2000F491E02D0994AA1BBB1B51E107C0AA1F3A
:100A3000BB1FA617B70710F0A61BB70B881F991F7F
:100A40005A95A9F780959095BC01CD010895FC01B8
:100A500088279927E89421912032E9F3293010F072
:100A60002E30C8F32B3241F02D3239F4689404C093
:100A70000E944C05820F911D219120532A30C0F312
:100A80001EF4909581959F4F0895FB01DC01019024
:100A90000D920020E1F708957AE0979F902D879FAF
:100AA000802D910D11240895AEE0B0E0EAE5F5E067
:100AB0000C9415080D891E8986E08C831A8309839E
:100AC0008FEF9FE79E838D83AE01475E5F4F6F89F7
:100AD000788DCE0101960E947605EF81F885E00FB2
:100AE000F11F10822E96E4E00C943108ABE0B0E0E8
:100AF000ECE7F5E00C9407086C017B018A01FC012E
:100B000017821682838181FFCCC1CE0101963C0100
:100B1000F6019381F70193FD859193FF81917F0108
:100B2000882309F4BAC1853239F493FD859193FF86
:100B300081917F01853229F4B60190E00E946D0712
:100B4000E7CF912C212C312CFFE1F315D8F08B321B
:100B500079F038F4803279F08332A1F4232D2061CA
:100B60001DC08D3261F0803369F4232D216016C0E1
:100B7000832D8260382EE32DE4603E2E2AC0F32DB3
:100B8000F8601DC037FC2DC020ED280F2A3040F042
:100B90008E32B9F436FC81C1232D2064322E19C067
:100BA00036FE06C08AE0989E200D1124922E11C0B8
:100BB000EAE02E9E200D1124222EF32DF0623F2E0E
:100BC00008C08C3621F4832D8068382E02C0883608
:100BD00041F4F70193FD859193FF81917F0181118C
:100BE000B3CF982F9F7D9554933028F40C5F1F4FFF
:100BF0009FE399830DC0833631F0833771F08335DD
:100C000009F059C021C0F801808189830E5F1F4F10
:100C100088248394912C530113C02801F2E04F0ED5
:100C2000511CF801A080B18036FE03C0692D70E030
:100C300002C06FEF7FEFC5010E9462074C01820185
:100C4000F32DFF773F2E16C0280122E0420E511CE3
:100C5000F801A080B18036FE03C0692D70E002C0AB
:100C60006FEF7FEFC5010E9457074C01F32DF0682D
:100C70003F2E820133FC1BC0822D90E0881699061E
:100C8000B0F4B60180E290E00E946D072A94F4CFA0
:100C9000F50137FC859137FE81915F01B60190E047
:100CA0000E946D0721102A9421E0821A9108811474
:100CB000910471F7E8C0843611F0893641F5F801E6
:100CC00037FE07C060817181828193810C5F1F4F65
:100CD00008C060817181072E000C880B990B0E5F94
:100CE0001F4FF32DFF763F2E97FF09C090958095FB
:100CF000709561957F4F8F4F9F4FF0683F2E2AE090
:100D000030E0A3010E94A907882E861845C08537C8
:100D100031F4232D2F7EB22E2AE030E025C0932D12
:100D2000997FB92E8F36C1F018F4883579F0B5C0A7
:100D3000803719F0883721F0B0C0E92FE061BE2E6E
:100D4000B4FE0DC0FB2DF460BF2E09C034FE0AC0F6
:100D5000292F2660B22E06C028E030E005C020E131
:100D600030E002C020E132E0F801B7FE07C0608148
:100D70007181828193810C5F1F4F06C060817181F8
:100D800080E090E00E5F1F4FA3010E94A907882E0C
:100D90008618FB2DFF773F2E36FE0DC0232D2E7FAC
:100DA000A22E891458F434FE0BC032FC09C0832DE6
:100DB0008E7EA82E05C0B82CA32C03C0B82C01C071
:100DC000B92CA4FE0FC0FE01E80DF11D8081803317
:100DD00021F49A2D997EA92E09C0A2FE06C0B394D3
:100DE000B39404C08A2D867809F0B394A3FC11C093
:100DF000A0FE06C0B21488F4280C922C9B180EC0DA
:100E0000B21460F4B60180E290E00E946D07B394E2
:100E1000F7CFB21418F42B1802C0982C212CA4FE82
:100E200010C0B60180E390E00E946D07A2FE17C0DB
:100E3000A1FC03C088E790E002C088E590E0B6011D
:100E40000CC08A2D867859F0A1FE02C08BE201C049
:100E500080E2A7FC8DE2B60190E00E946D07891444
:100E600038F4B60180E390E00E946D079A94F7CFC2
:100E70008A94F301E80DF11D8081B60190E00E9493
:100E80006D078110F5CF222009F442CEB60180E231
:100E900090E00E946D072A94F6CFF6018681978133
:100EA00002C08FEF9FEF2B96E2E10C942308FC0128
:100EB0000590615070400110D8F7809590958E0F85
:100EC0009F1F0895FC016150704001900110D8F7F8
:100ED000809590958E0F9F1F08950F931F93CF932A
:100EE000DF93FB01238121FD03C08FEF9FEF2CC017
:100EF00022FF16C04681578124813581421753074E
:100F000044F4A081B1819D012F5F3F4F3183208345
:100F10008C93268137812F5F3F4F3783268314C000
:100F20008B01EC01FB010084F185E02D0995892BF3
:100F3000E1F6D80116968D919C9117970196179618
:100F40009C938E931697CE01DF91CF911F910F91B5
:100F50000895FA01AA27283051F1203181F1E8944F
:100F60006F936E7F6E5F7F4F8F4F9F4FAF4FB1E09C
:100F70003ED0B4E03CD0670F781F891F9A1FA11D97
:100F8000680F791F8A1F911DA11D6A0F711D811D98
:100F9000911DA11D20D009F468943F912AE0269F5D
:100FA00011243019305D3193DEF6CF010895462FBC
:100FB0004770405D4193B3E00FD0C9F7F6CF462F9D
:100FC0004F70405D4A3318F0495D31FD4052419306
:100FD00002D0A9F7EACFB4E0A695979587957795C3
:100FE0006795BA95C9F700976105710508959B014A
:100FF000AC010A2E06945795479537952795BA95D3
:10100000C9F7620F731F841F951FA01D08952F92AB
:101010003F924F925F926F927F928F929F92AF9288
:10102000BF92CF92DF92EF92FF920F931F93CF93D5
:10103000DF93CDB7DEB7CA1BDB0B0FB6F894DEBF6C
:101040000FBECDBF09942A88398848885F846E8492
:101050007D848C849B84AA84B984C884DF80EE80DC
:10106000FD800C811B81AA81B981CE0FD11D0FB6E5
:10107000F894DEBF0FBECDBFED010895F894FFCF09
:101080001F1C1F1E1F1E1F1F1E1F1E1F2530326408
:10109000202F2025303264202F202530346420007A
:1010A00025303264203A2025303264203A20253021
:1010B000326420002020202F2025303264202F2071
:1010C00025303464200025303264202F2020202059
:1010D0002F2025303464200025303264202F202535
:1010E000303264202F2020202020002020203A2091
:1010F00025303264203A20253032640025303264B5
:10110000203A202020203A20253032640025303239
:1011100064203A2025303264203A202020002041EB
:101120004D0020504D002532640041004200430034
:101130002A0044004545007374617274696E672E1D
:081140002E2E0032344800009D
:00000001FF
